:020000020000FC
:02000000FFC13E
:020038003BC2C9
:0201A0005FC13D
:100400000FEF0DBF0FE30EBF06D01AD000E200932E
:100410006706FDCFFFCF0F9308E00093A2060FEF12
:10042000009341060FEF0093B00000E400935006E4
:1004300000E2009361060FED009364060F910895AA
:100440000F9302E00093A90608E00093AA0601E0DA
:100450000093B30602E00093A20078940F910895F0
:100460000F9300913F000F9300E00093A9061AD06C
:1004700005D00F9100933F000F9118950F9300E066
:10048000009320080093210803E10093260800E070
:100490000093270807E00093000800E0009301089C
:1004A0000F9108950F9302E0009306080F910895AD
:1004B0004F9340913F004F930F9300E0009300084B
:1004C00000E0009306080093260800932708009395
:1004D0002008009321080091A80603FD03C053954E
:1004E0005093440602E00093A9060F914F91409368
:0604F0003F004F9118953A
:00000001FF
